:100000000C945C000C9479000C9479000C947900A9
:100010000C9479000C9479000C9479000C9479007C
:100020000C9479000C9479000C9479000C9479006C
:100030000C9479000C9479000C9479000C9479005C
:100040000C941F010C9479000C9479000C947900A5
:100050000C9479000C9479000C9479000C9479003C
:100060000C9479000C947900000000080002010053
:100070000003040700000000000000000000000072
:10008000250028002B0000000000240027002A0083
:10009000040404040404040402020202020203032E
:1000A0000303030301020408102040800102040836
:1000B000102001020408102011241FBECFEFD8E049
:1000C000DEBFCDBF11E0A0E0B1E0E4EEF5E002C09C
:1000D00005900D92A031B107D9F721E0A0E1B1E080
:1000E00001C01D92A931B207E1F70E9469010C9489
:1000F000F0020C94000090E0FC01E859FF4F2491BD
:10010000FC01EC55FF4F3491FC01E057FF4FE491A7
:10011000EE23C9F0222339F0233001F1A8F4213075
:1001200019F1223029F1F0E0EE0FFF1FE458FF4FE4
:10013000A591B4918FB7F894EC91611126C03095D8
:100140003E233C938FBF08952730A9F02830C9F093
:10015000243049F7809180008F7D03C0809180001A
:100160008F7780938000DFCF84B58F7784BDDBCF1E
:1001700084B58F7DFBCF8091B0008F778093B000E6
:10018000D2CF8091B0008F7DF9CF3E2BDACF3FB731
:10019000F8948091150190911601A0911701B091EA
:1001A000180126B5A89B05C02F3F19F00196A11D87
:1001B000B11D3FBFBA2FA92F982F8827BC01CD01B1
:1001C000620F711D811D911D42E0660F771F881F10
:1001D000991F4A95D1F708958F929F92AF92BF923F
:1001E000CF92DF92EF92FF926B017C010E94C700D9
:1001F0004B015C01C114D104E104F104B9F00E9487
:10020000C700681979098A099B09683E734081050E
:10021000910580F321E0C21AD108E108F10888EEC7
:10022000880E83E0981EA11CB11CE4CFFF90EF90D4
:10023000DF90CF90BF90AF909F908F9008951F92C6
:100240000F920FB60F9211242F933F938F939F938A
:10025000AF93BF938091110190911201A09113016E
:10026000B09114013091100123E0230F2D3758F580
:100270000196A11DB11D209310018093110190934F
:100280001201A0931301B093140180911501909174
:100290001601A0911701B09118010196A11DB11D81
:1002A0008093150190931601A0931701B093180144
:1002B000BF91AF919F918F913F912F910F900FBE62
:1002C0000F901F90189526E8230F0296A11DB11DCF
:1002D000D2CF789484B5826084BD84B5816084BDBA
:1002E00085B5826085BD85B5816085BD80916E00D4
:1002F000816080936E001092810080918100826005
:100300008093810080918100816080938100809141
:1003100080008160809380008091B1008460809330
:10032000B1008091B00081608093B00080917A002C
:10033000846080937A0080917A00826080937A0052
:1003400080917A00816080937A0080917A00806841
:1003500080937A001092C100A0E0B1E08D919D9150
:100360009927FC01EC55FF4F249180579F4FFC01CA
:100370008491882399F090E0880F991FFC01EA5737
:10038000FF4FC591D491FC01E458FF4F85919491A2
:100390008FB7F894E881E22BE8838FBFF1E0A031BA
:1003A000BF07E1F690E0E92E90E0F92EC0E0D1E041
:1003B0008881229661E00E947B0081E0C031D807ED
:1003C000B9F768EC70E080E090E00E94EC00C0E0DB
:1003D000D1E08881229660E00E947B0091E0C031EC
:1003E000D907B9F764EF71E080E090E00E94EC007B
:1003F000C0E0D1E000E011E0F80180810E5F1F4F06
:1004000060E00E947B00F1E000311F07A9F78881BE
:10041000229661E00E947B0068EC70E080E090E052
:100420000E94EC0081E0C031D80721F7C0E1D1E0A3
:100430008E0180E0C82E81E0D82EF6018081F2E0A6
:10044000CF0ED11C60E00E947B0080E1C81681E0E5
:10045000D80699F761E0F80180810E947B0068EC82
:1004600070E080E090E00E94EC0002501109F1E0A1
:1004700000301F07F1F664EF71E080E090E00E9429
:10048000EC0000E011E0F801D0800E5F1F4F61E04A
:100490008D2D0E947B0062E370E080E090E00E947E
:1004A000EC0060E08D2D0E947B0062E370E080E054
:1004B00090E00E94EC00F1E000311F0721F764EFAB
:1004C00071E080E090E00E94EC002297188161E0EA
:1004D000812F0E947B0062E370E080E090E00E9448
:1004E000EC0060E0812F0E947B0062E370E080E01E
:1004F00090E00E94EC0081E0C030D80731F764EF53
:1005000071E080E090E00E94EC0000E011E0E80182
:10051000A880229661E08A2D0E947B00B88061E06D
:100520008B2D0E947B00F801C68461E08C2D0E9417
:100530007B00F801D48461E08D2D0E947B0068EC83
:1005400070E080E090E00E94EC0060E08A2D0E9464
:100550007B0060E08B2D0E947B0060E08C2D0E9470
:100560007B0060E08D2D0E947B0068EC70E080E0F5
:1005700090E00E94EC0002501109F1E0C031DF0769
:1005800039F6C0E0D1E08881229661E00E947B00CC
:1005900068EC70E080E090E00E94EC0081E0C03107
:1005A000D80789F764EF71E080E090E00E94EC00EA
:1005B000C0E0D1E08881229660E00E947B0091E05B
:1005C000C031D907B9F764EF71E080E090E00E9494
:1005D000EC00E114F10409F4E9CE0E940000E6CE3B
:0405E000F894FFCFBD
:1005E400050006000700080009000A000B000C00C3
:00000001FF
